{
  "contractName": "CartSale",
  "abi": [
    {
      "inputs": [],
      "stateMutability": "nonpayable",
      "type": "constructor"
    },
    {
      "anonymous": false,
      "inputs": [
        {
          "indexed": true,
          "internalType": "address",
          "name": "buyer",
          "type": "address"
        },
        {
          "indexed": true,
          "internalType": "address",
          "name": "seller",
          "type": "address"
        },
        {
          "indexed": false,
          "internalType": "uint256",
          "name": "amount",
          "type": "uint256"
        }
      ],
      "name": "TransactionComplete",
      "type": "event"
    },
    {
      "inputs": [
        {
          "internalType": "address",
          "name": "",
          "type": "address"
        }
      ],
      "name": "usersOrders",
      "outputs": [
        {
          "internalType": "uint256",
          "name": "userId",
          "type": "uint256"
        },
        {
          "internalType": "uint256",
          "name": "numOrders",
          "type": "uint256"
        }
      ],
      "stateMutability": "view",
      "type": "function",
      "constant": true
    },
    {
      "inputs": [
        {
          "internalType": "uint256",
          "name": "_amount",
          "type": "uint256"
        },
        {
          "internalType": "uint256",
          "name": "orderId",
          "type": "uint256"
        },
        {
          "internalType": "uint256",
          "name": "userId",
          "type": "uint256"
        },
        {
          "internalType": "uint256",
          "name": "items",
          "type": "uint256"
        }
      ],
      "name": "purchaseCoffee",
      "outputs": [],
      "stateMutability": "payable",
      "type": "function",
      "payable": true
    },
    {
      "inputs": [
        {
          "internalType": "address",
          "name": "_user",
          "type": "address"
        },
        {
          "internalType": "uint256",
          "name": "_orderNum",
          "type": "uint256"
        }
      ],
      "name": "getOrderInfo",
      "outputs": [
        {
          "components": [
            {
              "internalType": "uint256",
              "name": "orderId",
              "type": "uint256"
            },
            {
              "internalType": "uint256",
              "name": "amount",
              "type": "uint256"
            },
            {
              "internalType": "uint256",
              "name": "items",
              "type": "uint256"
            },
            {
              "internalType": "uint256",
              "name": "timestamp",
              "type": "uint256"
            }
          ],
          "internalType": "struct CartSale.Order",
          "name": "",
          "type": "tuple"
        }
      ],
      "stateMutability": "view",
      "type": "function",
      "constant": true
    }
  ],
  "bytecode": "0x6080604052738771b888fe2486f3a2874703cb09f245a3e4f3e06000806101000a81548173ffffffffffffffffffffffffffffffffffffffff021916908373ffffffffffffffffffffffffffffffffffffffff16021790555034801561006457600080fd5b5061091d806100746000396000f3fe6080604052600436106100345760003560e01c80632ec5d1cc1461003957806382510bcf1461007757806382572815146100b4575b600080fd5b34801561004557600080fd5b50610060600480360381019061005b919061052b565b6100d0565b60405161006e929190610571565b60405180910390f35b34801561008357600080fd5b5061009e600480360381019061009991906105c6565b6100f4565b6040516100ab919061066a565b60405180910390f35b6100ce60048036038101906100c99190610685565b61018a565b005b60016020528060005260406000206000915090508060000154908060010154905082565b6100fc6104a0565b600160008473ffffffffffffffffffffffffffffffffffffffff1673ffffffffffffffffffffffffffffffffffffffff1681526020019081526020016000206002016000838152602001908152602001600020604051806080016040529081600082015481526020016001820154815260200160028201548152602001600382015481525050905092915050565b6000670de0b6b3a7640000856101a0919061071b565b90508034146101e4576040517f08c379a00000000000000000000000000000000000000000000000000000000081526004016101db906107f8565b60405180910390fd5b80471015610227576040517f08c379a000000000000000000000000000000000000000000000000000000000815260040161021e90610864565b60405180910390fd5b6000604051806080016040528086815260200187815260200184815260200142815250905083600160003373ffffffffffffffffffffffffffffffffffffffff1673ffffffffffffffffffffffffffffffffffffffff1681526020019081526020016000206000018190555080600160003373ffffffffffffffffffffffffffffffffffffffff1673ffffffffffffffffffffffffffffffffffffffff1681526020019081526020016000206002016000600160003373ffffffffffffffffffffffffffffffffffffffff1673ffffffffffffffffffffffffffffffffffffffff16815260200190815260200160002060010154815260200190815260200160002060008201518160000155602082015181600101556040820151816002015560608201518160030155905050600160003373ffffffffffffffffffffffffffffffffffffffff1673ffffffffffffffffffffffffffffffffffffffff16815260200190815260200160002060010160008154809291906103a790610884565b919050555060008054906101000a900473ffffffffffffffffffffffffffffffffffffffff1673ffffffffffffffffffffffffffffffffffffffff166108fc839081150290604051600060405180830381858888f19350505050158015610412573d6000803e3d6000fd5b5060008054906101000a900473ffffffffffffffffffffffffffffffffffffffff1673ffffffffffffffffffffffffffffffffffffffff163373ffffffffffffffffffffffffffffffffffffffff167f548028be82fa9d4de59b0442cbd8349fd2381907f01545258c73af59aa77b1d68460405161049091906108cc565b60405180910390a3505050505050565b6040518060800160405280600081526020016000815260200160008152602001600081525090565b600080fd5b600073ffffffffffffffffffffffffffffffffffffffff82169050919050565b60006104f8826104cd565b9050919050565b610508816104ed565b811461051357600080fd5b50565b600081359050610525816104ff565b92915050565b600060208284031215610541576105406104c8565b5b600061054f84828501610516565b91505092915050565b6000819050919050565b61056b81610558565b82525050565b60006040820190506105866000830185610562565b6105936020830184610562565b9392505050565b6105a381610558565b81146105ae57600080fd5b50565b6000813590506105c08161059a565b92915050565b600080604083850312156105dd576105dc6104c8565b5b60006105eb85828601610516565b92505060206105fc858286016105b1565b9150509250929050565b61060f81610558565b82525050565b60808201600082015161062b6000850182610606565b50602082015161063e6020850182610606565b5060408201516106516040850182610606565b5060608201516106646060850182610606565b50505050565b600060808201905061067f6000830184610615565b92915050565b6000806000806080858703121561069f5761069e6104c8565b5b60006106ad878288016105b1565b94505060206106be878288016105b1565b93505060406106cf878288016105b1565b92505060606106e0878288016105b1565b91505092959194509250565b7f4e487b7100000000000000000000000000000000000000000000000000000000600052601160045260246000fd5b600061072682610558565b915061073183610558565b9250817fffffffffffffffffffffffffffffffffffffffffffffffffffffffffffffffff048311821515161561076a576107696106ec565b5b828202905092915050565b600082825260208201905092915050565b7f53656e742065746820616d6f756e74206d757374206d6174636820746865207460008201527f72616e73616374696f6e2076616c756500000000000000000000000000000000602082015250565b60006107e2603083610775565b91506107ed82610786565b604082019050919050565b60006020820190508181036000830152610811816107d5565b9050919050565b7f496e73756666696369656e74206163636f756e742062616c616e636500000000600082015250565b600061084e601c83610775565b915061085982610818565b602082019050919050565b6000602082019050818103600083015261087d81610841565b9050919050565b600061088f82610558565b91507fffffffffffffffffffffffffffffffffffffffffffffffffffffffffffffffff82036108c1576108c06106ec565b5b600182019050919050565b60006020820190506108e16000830184610562565b9291505056fea26469706673582212206a6b15f3e377fbb96fc6e3969d2839a5f839c3ada688ddf3c029207c392792ae64736f6c634300080d0033",
  "immutableReferences": {},
  "source": "// SPDX-License-Identifier: MIT\r\npragma solidity ^0.8.13;\r\n\r\ncontract CartSale {\r\n    address sellerAccount = 0x8771B888Fe2486F3a2874703cb09f245a3e4f3e0;\r\n\r\n    struct Order {\r\n        uint orderId;\r\n        uint amount;\r\n        uint items;\r\n        uint timestamp;\r\n    }\r\n\r\n    struct Orders {\r\n        uint userId;\r\n        uint numOrders;\r\n        mapping(uint => Order) orders;\r\n    }\r\n\r\n    mapping(address => Orders) public usersOrders;\r\n\r\n    event TransactionComplete(\r\n        address indexed buyer,\r\n        address indexed seller,\r\n        uint amount\r\n    );\r\n\r\n    constructor() {}\r\n\r\n    function purchaseCoffee(\r\n        uint256 _amount,\r\n        uint orderId,\r\n        uint userId,\r\n        uint items\r\n    ) public payable {\r\n        uint256 amountInWei = _amount * 1e18;\r\n\r\n        require(\r\n            msg.value == amountInWei,\r\n            \"Sent eth amount must match the transaction value\"\r\n        );\r\n        require(\r\n            address(this).balance >= amountInWei,\r\n            \"Insufficient account balance\"\r\n        );\r\n\r\n        Order memory newOrder = Order(orderId, _amount, items, block.timestamp);\r\n        usersOrders[msg.sender].userId = userId;\r\n        usersOrders[msg.sender].orders[\r\n            usersOrders[msg.sender].numOrders\r\n        ] = newOrder;\r\n        usersOrders[msg.sender].numOrders++;\r\n\r\n        payable(sellerAccount).transfer(amountInWei);\r\n\r\n        emit TransactionComplete(msg.sender, sellerAccount, amountInWei);\r\n    }\r\n\r\n    function getOrderInfo(\r\n        address _user,\r\n        uint _orderNum\r\n    ) public view returns (Order memory) {\r\n        return usersOrders[_user].orders[_orderNum];\r\n    }\r\n}\r\n",
  "sourcePath": "D:\\kohi\\contracts\\CartSale.sol",
  "compiler": {
    "name": "solc",
    "version": "0.8.13+commit.abaa5c0e.Emscripten.clang"
  },
  "schemaVersion": "3.4.16",
  "updatedAt": "2023-12-26T16:41:16.488Z",
  "networkType": "ethereum",
  "devdoc": {
    "kind": "dev",
    "methods": {},
    "version": 1
  },
  "userdoc": {
    "kind": "user",
    "methods": {},
    "version": 1
  }
}