{
  "contractName": "CartSale",
  "abi": [
    {
      "inputs": [],
      "stateMutability": "nonpayable",
      "type": "constructor"
    },
    {
      "anonymous": false,
      "inputs": [
        {
          "indexed": true,
          "internalType": "address",
          "name": "buyer",
          "type": "address"
        },
        {
          "indexed": true,
          "internalType": "address",
          "name": "seller",
          "type": "address"
        },
        {
          "indexed": false,
          "internalType": "uint256",
          "name": "amount",
          "type": "uint256"
        }
      ],
      "name": "TransactionComplete",
      "type": "event"
    },
    {
      "inputs": [
        {
          "internalType": "address",
          "name": "",
          "type": "address"
        }
      ],
      "name": "usersOrders",
      "outputs": [
        {
          "internalType": "uint256",
          "name": "userId",
          "type": "uint256"
        },
        {
          "internalType": "uint256",
          "name": "numOrders",
          "type": "uint256"
        }
      ],
      "stateMutability": "view",
      "type": "function",
      "constant": true
    },
    {
      "inputs": [
        {
          "internalType": "uint256",
          "name": "orderId",
          "type": "uint256"
        },
        {
          "internalType": "uint256",
          "name": "userId",
          "type": "uint256"
        },
        {
          "internalType": "uint256",
          "name": "items",
          "type": "uint256"
        }
      ],
      "name": "purchaseCoffee",
      "outputs": [],
      "stateMutability": "payable",
      "type": "function",
      "payable": true
    },
    {
      "inputs": [
        {
          "internalType": "address",
          "name": "_user",
          "type": "address"
        },
        {
          "internalType": "uint256",
          "name": "_orderNum",
          "type": "uint256"
        }
      ],
      "name": "getOrderInfo",
      "outputs": [
        {
          "components": [
            {
              "internalType": "uint256",
              "name": "orderId",
              "type": "uint256"
            },
            {
              "internalType": "uint256",
              "name": "amount",
              "type": "uint256"
            },
            {
              "internalType": "uint256",
              "name": "items",
              "type": "uint256"
            },
            {
              "internalType": "uint256",
              "name": "timestamp",
              "type": "uint256"
            }
          ],
          "internalType": "struct CartSale.Order",
          "name": "",
          "type": "tuple"
        }
      ],
      "stateMutability": "view",
      "type": "function",
      "constant": true
    }
  ],
  "bytecode": "0x6080604052738771b888fe2486f3a2874703cb09f245a3e4f3e06000806101000a81548173ffffffffffffffffffffffffffffffffffffffff021916908373ffffffffffffffffffffffffffffffffffffffff16021790555034801561006457600080fd5b5061089c806100746000396000f3fe6080604052600436106100345760003560e01c80632ec5d1cc14610039578063382d35181461007757806382510bcf14610093575b600080fd5b34801561004557600080fd5b50610060600480360381019061005b9190610518565b6100d0565b60405161006e92919061055e565b60405180910390f35b610091600480360381019061008c91906105b3565b6100f4565b005b34801561009f57600080fd5b506100ba60048036038101906100b59190610606565b6103f7565b6040516100c791906106aa565b60405180910390f35b60016020528060005260406000206000915090508060000154908060010154905082565b60003490506000341161013c576040517f08c379a000000000000000000000000000000000000000000000000000000000815260040161013390610748565b60405180910390fd5b8047101561017f576040517f08c379a0000000000000000000000000000000000000000000000000000000008152600401610176906107b4565b60405180910390fd5b6000604051806080016040528086815260200183815260200184815260200142815250905083600160003373ffffffffffffffffffffffffffffffffffffffff1673ffffffffffffffffffffffffffffffffffffffff1681526020019081526020016000206000018190555080600160003373ffffffffffffffffffffffffffffffffffffffff1673ffffffffffffffffffffffffffffffffffffffff1681526020019081526020016000206002016000600160003373ffffffffffffffffffffffffffffffffffffffff1673ffffffffffffffffffffffffffffffffffffffff16815260200190815260200160002060010154815260200190815260200160002060008201518160000155602082015181600101556040820151816002015560608201518160030155905050600160003373ffffffffffffffffffffffffffffffffffffffff1673ffffffffffffffffffffffffffffffffffffffff16815260200190815260200160002060010160008154809291906102ff90610803565b919050555060008054906101000a900473ffffffffffffffffffffffffffffffffffffffff1673ffffffffffffffffffffffffffffffffffffffff166108fc839081150290604051600060405180830381858888f1935050505015801561036a573d6000803e3d6000fd5b5060008054906101000a900473ffffffffffffffffffffffffffffffffffffffff1673ffffffffffffffffffffffffffffffffffffffff163373ffffffffffffffffffffffffffffffffffffffff167f548028be82fa9d4de59b0442cbd8349fd2381907f01545258c73af59aa77b1d6846040516103e8919061084b565b60405180910390a35050505050565b6103ff61048d565b600160008473ffffffffffffffffffffffffffffffffffffffff1673ffffffffffffffffffffffffffffffffffffffff1681526020019081526020016000206002016000838152602001908152602001600020604051806080016040529081600082015481526020016001820154815260200160028201548152602001600382015481525050905092915050565b6040518060800160405280600081526020016000815260200160008152602001600081525090565b600080fd5b600073ffffffffffffffffffffffffffffffffffffffff82169050919050565b60006104e5826104ba565b9050919050565b6104f5816104da565b811461050057600080fd5b50565b600081359050610512816104ec565b92915050565b60006020828403121561052e5761052d6104b5565b5b600061053c84828501610503565b91505092915050565b6000819050919050565b61055881610545565b82525050565b6000604082019050610573600083018561054f565b610580602083018461054f565b9392505050565b61059081610545565b811461059b57600080fd5b50565b6000813590506105ad81610587565b92915050565b6000806000606084860312156105cc576105cb6104b5565b5b60006105da8682870161059e565b93505060206105eb8682870161059e565b92505060406105fc8682870161059e565b9150509250925092565b6000806040838503121561061d5761061c6104b5565b5b600061062b85828601610503565b925050602061063c8582860161059e565b9150509250929050565b61064f81610545565b82525050565b60808201600082015161066b6000850182610646565b50602082015161067e6020850182610646565b5060408201516106916040850182610646565b5060608201516106a46060850182610646565b50505050565b60006080820190506106bf6000830184610655565b92915050565b600082825260208201905092915050565b7f53656e742065746820616d6f756e74206d757374206d6174636820746865207460008201527f72616e73616374696f6e2076616c756500000000000000000000000000000000602082015250565b60006107326030836106c5565b915061073d826106d6565b604082019050919050565b6000602082019050818103600083015261076181610725565b9050919050565b7f496e73756666696369656e74206163636f756e742062616c616e636500000000600082015250565b600061079e601c836106c5565b91506107a982610768565b602082019050919050565b600060208201905081810360008301526107cd81610791565b9050919050565b7f4e487b7100000000000000000000000000000000000000000000000000000000600052601160045260246000fd5b600061080e82610545565b91507fffffffffffffffffffffffffffffffffffffffffffffffffffffffffffffffff82036108405761083f6107d4565b5b600182019050919050565b6000602082019050610860600083018461054f565b9291505056fea26469706673582212201a48c199f8615835cd9406f67b036dd3f2636180fc24b75eb8633afdeb71333864736f6c634300080d0033",
  "immutableReferences": {},
  "source": "// SPDX-License-Identifier: MIT\r\npragma solidity ^0.8.13;\r\n\r\ncontract CartSale {\r\n    address sellerAccount = 0x8771B888Fe2486F3a2874703cb09f245a3e4f3e0;\r\n\r\n    struct Order {\r\n        uint orderId;\r\n        uint amount;\r\n        uint items;\r\n        uint timestamp;\r\n    }\r\n\r\n    struct Orders {\r\n        uint userId;\r\n        uint numOrders;\r\n        mapping(uint => Order) orders;\r\n    }\r\n\r\n    mapping(address => Orders) public usersOrders;\r\n\r\n    event TransactionComplete(\r\n        address indexed buyer,\r\n        address indexed seller,\r\n        uint amount\r\n    );\r\n\r\n    constructor() {}\r\n\r\n    function purchaseCoffee(\r\n        uint orderId,\r\n        uint userId,\r\n        uint items\r\n    ) public payable {\r\n        uint256 amount = msg.value;\r\n        require(\r\n            msg.value > 0,\r\n            \"Sent eth amount must match the transaction value\"\r\n        );\r\n        require(\r\n            address(this).balance >= amount,\r\n            \"Insufficient account balance\"\r\n        );\r\n\r\n        Order memory newOrder = Order(orderId, amount, items, block.timestamp);\r\n        usersOrders[msg.sender].userId = userId;\r\n        usersOrders[msg.sender].orders[\r\n            usersOrders[msg.sender].numOrders\r\n        ] = newOrder;\r\n        usersOrders[msg.sender].numOrders++;\r\n\r\n        payable(sellerAccount).transfer(amount);\r\n\r\n        emit TransactionComplete(msg.sender, sellerAccount, amount);\r\n    }\r\n\r\n    function getOrderInfo(\r\n        address _user,\r\n        uint _orderNum\r\n    ) public view returns (Order memory) {\r\n        return usersOrders[_user].orders[_orderNum];\r\n    }\r\n}\r\n",
  "sourcePath": "D:\\kohi\\contracts\\CartSale.sol",
  "compiler": {
    "name": "solc",
    "version": "0.8.13+commit.abaa5c0e.Emscripten.clang"
  },
  "schemaVersion": "3.4.16",
  "updatedAt": "2024-01-02T16:45:39.089Z",
  "networkType": "ethereum",
  "devdoc": {
    "kind": "dev",
    "methods": {},
    "version": 1
  },
  "userdoc": {
    "kind": "user",
    "methods": {},
    "version": 1
  }
}